:020000040800F2
:100000008006002081010008A3090008A10900085A
:1000100000000000000000000000000000000000E0
:10002000000000000000000000000000A709000818
:100030000000000000000000A5090008A909000850
:100040009301000893010008930100089301000840
:100050009301000893010008930100089301000830
:100060009301000893010008930100089301000820
:100070009301000893010008930100089301000810
:100080009301000893010008930100089301000800
:1000900093010008930100089301000893010008F0
:1000A00093010008930100089301000893010008E0
:1000B00093010008B50900089301000893010008A6
:1000C00000F002F800F04CF812A030C808382418EC
:1000D0002D18AC4201D100F043F80FCCA246AB463C
:1000E0000CA730CF2D1B083F3F197C427F1E544484
:1000F0002D090426F441641EAC4201D300F030F80F
:100100000126334200D0FB1A3343984754465D46DC
:10011000DFE70000501D0000701D0000103A02D300
:1001200078C878C1FAD8520701D330C830C101D598
:1001300004680C6070470000704700000023002432
:1001400000250026103A01D378C1FBD8520700D30E
:1001500030C100D50B6070471FB51FBD10B510BD75
:1001600000F04DF81146FFF7F7FF00F02FFC00F00C
:1001700065F803B4FFF7F2FF03BC00F06BF8000072
:100180000748804707480047FEE7FEE7FEE7FEE72F
:10019000FEE7FEE704480549054A064B70470000A4
:1001A000B1090008C100000880000020800600207E
:1001B000800200208002002001E004C0091F042901
:1001C000FBD28B0701D50280801CC90700D00270CA
:1001D000704700290BD0C30702D00270401C491E93
:1001E000022904D3830702D50280801C891EE3E71D
:1001F0000022EEE70022DFE7704770477047754640
:1002000000F024F8AE46050069465346C008C00019
:10021000854618B020B5FFF7BDFF60BCB646002686
:100220000027C0C5C0C5C0C5C0C5C0C5C0C5C0C504
:10023000C0C5403D490849008D46704710B5044689
:10024000C046C0462046FFF794FF10BD00487047E7
:100250001000002001491820ABBEFEE72600020076
:1002600070470000054800687047C0461A4800788B
:1002700002490A68101808607047C04678000020DC
:1002800080B58548016810220A430260032000F00F
:1002900005F800F023F8002080BDC04670B5044684
:1002A0007D20C0000C4E317801F0C8FC0146844826
:1002B000006801F0C3FC00F059FB0125032C08D8AD
:1002C000002806D10025E84321462A4600F01CF804
:1002D0007460284670BDC0460000002082B0094806
:1002E00001680122114301600168114001910199E7
:1002F000110742680A434260406808400090009835
:1003000002B0704718100240002805D403220346AB
:1003100093430A4A9A1803E00C220240064BD21873
:100320008007C00E8901C9B28140FF238340106855
:10033000984308431060704714ED00E000E400E0CB
:10034000F0B581B0002846D00446534A1368012016
:1003500003408B4208D213680126B3430B4313605A
:10036000126832408A4237D1009121688A074B4B8C
:1003700010D54A0706D5072212021B681343474AC5
:100380001360464B1A68F0239A43A3681343434A09
:100390001360424BC90722D13F490868012630400B
:1003A000009A904205D90868B04308600868C00701
:1003B00012D12078400706D5072000021968814332
:1003C000E068084318601A681007810F3548022951
:1003D00012D2044650E00126304601B0F0BD6168FB
:1003E00003290DD01A1F02290FD0012912D112683A
:1003F00092030646F0D511E0032926D12A4C3BE0B2
:100400001A6B92030646E7D508E012689201064689
:10041000E2D503E0126892070646DDD51868032688
:10042000B04308431860FFF71DFF07461C4D1B4BE8
:1004300018680C210140606880008142ACD0FFF751
:1004400011FFC01BA842F2D9C6E70321CB03134911
:10045000896A0F240C401549095D94021A40240F43
:10046000134D2C5D9A4202D033049A4200E00E48AC
:1004700001F0E4FB4443094B18680006000F0D49E6
:10048000085CC4400E4804600320FFF707FF002605
:10049000304601B0F0BDC0460020024004100240CA
:1004A0008813000000127A00006CDC02521E000863
:1004B000421E0008321E0008014800687047C0460E
:1004C00008000020F0B587B004460120002C00D1C0
:1004D00045E204902078C007F94E05940CD071686D
:1004E0000C200140042900D090E03068800303D53F
:1004F0006068002800D120E12078800721D570684D
:100500000007800F0ED070680C210140082900D030
:100510009DE00320C003716801400120C0038142B7
:1005200000D094E030688007059C03D5E06801287E
:1005300000D002E13068F82188432169C9000143F5
:100540003160059C2078000724D42078400737D4F8
:100550002078C00600D4D3E005984069411D00D141
:10056000C2E0012800D030E1706B042101437163C7
:10057000706B012101437163FFF774FE0546706BD8
:10058000800700D5B4E0FFF76DFE411B0320022970
:10059000F5D9E4E1706AE169002900D181E0012127
:1005A00008437062FFF75EFE0546706A8007CCD490
:1005B000FFF758FE401B0228F7D9032007B0F0BD13
:1005C000012003900107F0690840029006D1F0690C
:1005D0000843F061F0690840069006980191E14FE8
:1005E0003868C0054AD4039804023868204338604C
:1005F000FFF738FE0546386820423FD1FFF732FE4C
:10060000401B6428F7D9032007B0F0BD7168014092
:10061000082908D10320C0037168014001200004AB
:10062000814200D161E7616801204704002900D1BF
:1006300017E1052900D12BE1012900D12CE10104AA
:1006400032688A43326081043068884327E1306829
:10065000059CE168002936D0012108433060FFF78E
:1006600001FE05463068800700D563E7FFF7FAFD15
:10067000401B0228F6D9032007B0F0BD059880681A
:10068000002800D1B6E0052800D1C9E0012800D13A
:10069000CAE0306A039988433062306A0421884393
:1006A000C5E0012188437062FFF7DCFD0546706AF2
:1006B000800700D449E7FFF7D5FD401B0228F6D993
:1006C000032007B0F0BD012188433060FFF7CAFD69
:1006D00005463068800700D433E7FFF7C3FD411BB0
:1006E00003200229F5D93AE1706B04218843706335
:1006F000706BF821884305998969C90001437163CA
:100700000598007880060BD571680C2001400C29F3
:1007100039D1706B800303D50598006A01280CD18C
:100720000598446A002C00D1E1E070680C2101407A
:10073000082905D1012C00D0C4E0049807B0F0BD11
:100740000120020631680492914331604706FFF7A9
:1007500089FD0546022C0BD1049C3068384200D13B
:10076000DEE0FFF77FFD411B03200229F5D9F6E00B
:100770003068384200D1BAE0FFF774FD411B032016
:100780000229F5D9EBE071680140082905D1032061
:10079000C003716801408142BBD0706B0599096A42
:1007A000002900D1A9E001210A04104370634C0420
:1007B000FFF758FD0546706B2042B1D1FFF752FD9F
:1007C000411B03200229F6D9C9E0706B04210143C3
:1007D0007163706B012188437063FFF743FD054629
:1007E000706B80078CD5FFF73DFD411B032002296C
:1007F000F6D9B4E0306A039988433062306A042144
:1008000088433062584CFFF72DFD0546306A80075B
:100810001DD5FFF727FD411B0320A142F6D99EE01D
:10082000306A042101433162306A0399084330621F
:100830004D4CFFF717FD0546306A800707D4FFF7D8
:1008400011FD401BA042F7D9032007B0F0BD02986C
:100850000028059C00D07BE6F06901998843F0618F
:1008600076E6010432688A4332608004316881434D
:100870003160FFF7F7FC0546059C3068384200D12F
:100880003AE6FFF7EFFC411B03206429F5D966E047
:10089000810432680A4332600104306808433060E2
:1008A000FFF7E0FC05463068384200D024E6FFF749
:1008B000D9FC401B6428F6D9032007B0F0BDC04620
:1008C000001002400320C20370680240F16A059CD8
:1008D000A36A9A42049D0DD10F221140236B9942C5
:1008E00008D191040840E16A8842284637D10020A7
:1008F00007B0F0BD284607B0F0BD01210A049043BF
:1009000070634C04FFF7AEFC0546706B204200D1CB
:1009100006E7FFF7A7FC411B03200229F5D91EE0DB
:10092000F06A0F218843059A116B0143F1627B2025
:10093000C00371688143D06A0843916A01437160C2
:10094000306820433060FFF78DFC04463068384241
:10095000CDD1FFF787FC011B03200229F6D907B090
:10096000F0BDC0460070004088130000401E010E1C
:1009700001D0012070470749074A506007480368C3
:100980000B4003218907591801600020906007215E
:1009900011607047FFFFFF0010E000E020ED00E075
:1009A000FEE7FEE77047704780B5FFF75FFC80BD4C
:1009B00070470000034800880349087048687421A4
:1009C00001707047244800407000002000B59BB0C3
:1009D000DD4909A8486066260670FFF751FC0EAD98
:1009E000281D3021FFF706FC0024179410201290D8
:1009F0000127119702200E902846FFF763FD00287B
:100A000003D0EFF3108072B6FEE702970D940C94BA
:100A10000B9407250A950AA82146FFF791FC0028A8
:100A200003D0EFF3108072B6FEE70195029DA80493
:100A3000C6490A6802430A60EA040B6813430B6064
:100A40008A6802438A60C24A1168C24B1940116029
:100A50001168014311601068BF4908401060280404
:100A60001168014311601068BC4908401060A90377
:100A700008911068084310601068B9490840106078
:100A80002803116801431160506840210791884391
:100A90005060506880210691884350602F02506852
:100AA000B84350606B025168994351609068AD49FA
:100AB000084090609468AC4804409460059696683D
:100AC000AA4C264096609068A94E30409060D0684D
:100AD000A04E3040D060D0680840D060D0689E49B9
:100AE0000840D060D068A0490840D060D0689B49D9
:100AF0000840D060D0682040D060D0689849084055
:100B0000D060D0689A490840D0605069184350615D
:100B100050693843506150690699084350615069E3
:100B20000799084350616905924802680A430260C8
:100B3000E90502680A430260290502688A430260E7
:100B4000A90502688A430260A902426A0A43426216
:100B5000416A089A11434162FFF7AEFC4B21C9017B
:100B600001F06CF884490A46103A106008461C38B7
:100B70000268202308931A43026002680423134387
:100B800003600268082300931A43026002682A4344
:100B900002606807794A1060FF200002784A1368F3
:100BA0008343E80318181060674B02E007988881B8
:100BB0002E7008680006FCD543208881086800066E
:100BC00008D40868000605D40868000602D408683E
:100BD0000006F3D56820039088810868000608D4D1
:100BE0000868000605D40868000602D408680006F4
:100BF000F3D56F268E810868000608D408680006C1
:100C000005D40868000602D408680006F3D58E8172
:100C10000868000608D40868000605D408680006BD
:100C200002D408680006F3D573208881086800069E
:100C300008D40868000605D40868000602D40868CD
:100C40000006F3D565248C810868000608D408687E
:100C5000000605D40868000602D408680006F3D52B
:100C6000089888810868000608D40868000605D43A
:100C70000868000602D408680006F3D54C278F8167
:100C80000868000608D40868000605D4086800064D
:100C900002D408680006F3D5452088810A68120648
:100CA00008D40A68120605D40A68120602D40A6833
:100CB0001206F3D5442204928A810A68120608D4E7
:100CC0000A68120605D40A68120602D40A681206D7
:100CD000F3D50A2206928A810A68120608D40A68A5
:100CE000120605D40A68120602D40A681206F3D561
:100CF0000D2207928A815D682A78742A08D02A78A2
:100D0000742A05D02A78742A02D02A78742AF3D15A
:100D10001A78623A102A00D90FE152007A44928878
:100D2000520097442F000A010A010A010A01EA0150
:100D30000A010A010A010A010A010A010A01D9028B
:100D40000A010A01AC04C0467000002014100240E1
:100D500000080048FFFFF7FFFFFFFDFFFF7FFFFFD9
:100D6000FFDFFFFFFFFFFBFFFFFFFEFFFFBFFFFFF8
:100D7000FFEFFFFF000400481C48004000E100E0D6
:100D80001CE400E00A68120608D40A68120605D4BA
:100D90000A68120602D40A681206F3D542228A8132
:100DA0000A68120608D40A68120605D40A681206F0
:100DB00002D40A681206F3D56C228A810B681B06DE
:100DC00008D40B681B0605D40B681B0602D40B68FD
:100DD0001B06F3D575238B810B681B0608D40B68A3
:100DE0001B0605D40B681B0602D40B681B06F3D543
:100DF0008C810B681B0608D40B681B0605D40B6896
:100E00001B0602D40B681B06F3D5089B8B810B686D
:100E10001B0608D40B681B0605D40B681B0602D4FE
:100E20000B681B06F3D553238B810B681B0608D474
:100E30000B681B0605D40B681B0602D40B681B0647
:100E4000F3D58C810B681B0608D40B681B0605D4F0
:100E50000B681B0602D40B681B06F3D58A810A684F
:100E6000120608D40A68120605D40A68120602D4CB
:100E70000A681206F3D58C810A68120608D40A683B
:100E8000120605D40A68120602D40A681206F3D5BF
:100E900063228A810A68120608D40A68120605D4F9
:100EA0000A68120602D40A681206F3D574228A81EF
:100EB0000A68120608D40A68120605D40A681206DF
:100EC00002D40A681206F3D58C810A68120608D487
:100ED0000A68120605D40A68120602D40A681206C5
:100EE000F3D564228A810A68120608D40A681206B9
:100EF00005D40A68120602D40A681206F3D53A220B
:100F00008A810A68120608D40A68120605D40A689B
:100F1000120602D40A681206F3D5069A8A810A6874
:100F2000120608D40A68120605D40A68120602D40A
:100F30000A681206F3D5019AC5E20868000608D4CB
:100F40000868000605D40868000602D40868000690
:100F5000F3D5492088810868000608D4086800068F
:100F600005D40868000602D408680006F3D56E2090
:100F700088810868000608D40868000605D4086857
:100F8000000602D408680006F3D576208881086838
:100F9000000608D40868000605D40868000602D4D4
:100FA00008680006F3D5612088810868000608D427
:100FB0000868000605D40868000602D40868000620
:100FC000F3D56C2088810868000608D408680006FC
:100FD00005D40868000602D408680006F3D5692025
:100FE00088810A68120608D40A68120605D40A68BD
:100FF000120602D40A681206F3D564228A810A68AE
:10100000120608D40A68120605D40A68120602D429
:101010000A681206F3D5089A8A810A68120608D46B
:101020000A68120605D40A68120602D40A68120673
:10103000F3D563228A810B681B0608D40B681B0654
:1010400005D40B681B0602D40B681B06F3D5039B63
:101050008B810B681B0608D40B681B0605D40B6834
:101060001B0602D40B681B06F3D58E810B681B068A
:1010700008D40B681B0605D40B681B0602D40B684A
:101080001B06F3D58881059E0868000608D4086809
:10109000000605D40868000602D408680006F3D5E7
:1010A0008A818C4B0868000608D40868000605D4BD
:1010B0000868000602D408680006F3D58C81086829
:1010C000000608D40868000605D40868000602D4A3
:1010D00008680006F3D5069888810868000600D5E0
:1010E00064E50868000600D560E50868000600D5DC
:1010F0005CE508680006F0D558E50A68120608D4D1
:101100000A68120605D40A68120602D40A68120692
:10111000F3D547228A810A68120608D40A681206A3
:1011200005D40A68120602D40A681206F3D57222A0
:101130008A810A68120608D40A68120605D40A6869
:10114000120602D40A681206F3D58C810A681206C8
:1011500008D40A68120605D40A68120602D40A687E
:101160001206F3D58C810A68120608D40A681206A2
:1011700005D40A68120602D40A681206F3D56E2254
:101180008A810A68120608D40A68120605D40A6819
:10119000120602D40A681206F3D5089A8A810A68F0
:1011A000120608D40A68120605D40A68120602D488
:1011B0000A681206F3D553228A810A68120608D4F7
:1011C0000A68120605D40A68120602D40A681206D2
:1011D000F3D58C810A68120608D40A68120605D471
:1011E0000A68120602D40A681206F3D56C228A81B4
:1011F0000A68120608D40A68120605D40A6812069C
:1012000002D40A681206F3D58C810A68120608D443
:101210000A68120605D40A68120602D40A68120681
:10122000F3D563228A810A68120608D40A68120676
:1012300005D40A68120602D40A681206F3D574228D
:101240008A810A68120608D40A68120605D40A6858
:10125000120602D40A681206F3D58C810A681206B7
:1012600008D40A68120605D40A68120602D40A686D
:101270001206F3D564228A810A68120608D40A6825
:10128000120605D40A68120602D40A681206F3D5BB
:101290003A228A810A68120608D40A68120605D41E
:1012A0000A68120602D40A681206F3D5069A8A81E1
:1012B0000B6809221B0600D505E10B681B0600D54B
:1012C00001E10B681B0600D5FDE00B681B06EFD59E
:1012D000F9E0C046700000200A68120608D40A68C7
:1012E000120605D40A68120602D40A681206F3D55B
:1012F0004F228A810A68120608D40A68120605D4A9
:101300000A68120602D40A681206F3D572228A818C
:101310000A68120608D40A68120605D40A6812067A
:1013200002D40A681206F3D561228A810A6812067D
:1013300008D40A68120605D40A68120602D40A689C
:101340001206F3D56E228A810A68120608D40A684A
:10135000120605D40A68120602D40A681206F3D5EA
:1013600067228A810A68120608D40A68120605D420
:101370000A68120602D40A681206F3D58C810A683C
:10138000120608D40A68120605D40A68120602D4A6
:101390000A681206F3D5089A8A810A68120608D4E8
:1013A0000A68120605D40A68120602D40A681206F0
:1013B000F3D553228A810A68120608D40A681206F5
:1013C00005D40A68120602D40A681206F3D58C8185
:1013D0000A68120608D40A68120605D40A681206BA
:1013E00002D40A681206F3D56C228A810A681206B2
:1013F00008D40A68120605D40A68120602D40A68DC
:101400001206F3D58C810A68120608D40A681206FF
:1014100005D40A68120602D40A681206F3D56322BC
:101420008A810A68120608D40A68120605D40A6876
:10143000120602D40A681206F3D574228A810A6859
:10144000120608D40A68120605D40A68120602D4E5
:101450000A681206F3D58C810A68120608D40A6855
:10146000120605D40A68120602D40A681206F3D5D9
:1014700064228A810A68120608D40A68120605D412
:101480000A68120602D40A681206F3D53A228A8143
:101490000A68120608D40A68120605D40A681206F9
:1014A00002D40A681206F3D5069A8A810A681206DF
:1014B00008D40A68120605D40A68120602D40A681B
:1014C0001206F3D5009A079B8B81059B2B70D44B9A
:1014D0005D682B78742B08D02B78742B05D02B7873
:1014E000742B02D02B78742BF3D1CD4B1B78302B7F
:1014F00000D17DE2312B00D111E3322B00D093E1FA
:10150000029B9340C74C62695A4062610A681206A6
:1015100008D40A68120605D40A68120602D40A68BA
:101520001206F3D58F81059E0A68120608D40A6850
:10153000120605D40A68120602D40A681206F3D508
:1015400088810A68120608D40A68120605D40A6857
:10155000120602D40A681206F3D5049A8A810A6830
:10156000120608D40A68120605D40A68120602D4C4
:101570000A681206F3D5089A8A810A68120608D406
:101580000A68120605D40A68120602D40A6812060E
:10159000F3D554228A810A68120608D40A68120612
:1015A00005D40A68120602D40A681206F3D54F223F
:1015B0008A810A68120608D40A68120605D40A68E5
:1015C000120602D40A681206F3D547228A810B68F4
:1015D0001B0608D40B681B0605D40B681B0602D437
:1015E0000B681B06F3D58A810A68120608D40A68BC
:1015F000120605D40A68120602D40A681206F3D548
:101600008F81874B0A68120608D40A68120605D42F
:101610000A68120602D40A681206F3D5888108689F
:10162000000608D40868000605D40868000602D43D
:1016300008680006F3D53A2088810868000608D4B7
:101640000868000605D40868000602D40868000689
:10165000F3D5069888810868000601D5FFF7A6FA39
:101660000868000601D5FFF7A1FA0868000601D551
:10167000FFF79CFA08680006EDD5FFF797FA0A68AD
:10168000120608D40A68120605D40A68120602D4A3
:101690000A681206F3D552228A810A68120608D413
:1016A0000A68120605D40A68120602D40A681206ED
:1016B000F3D58C810A68120608D40A68120605D48C
:1016C0000A68120602D40A681206F3D564228A81D7
:1016D0000B681B0608D40B681B0605D40B681B0699
:1016E00002D40B681B06F3D5089B8B810B681B0685
:1016F00008D40B681B0605D40B681B0602D40B68C4
:101700001B06F3D553238B810B681B0608D40B688B
:101710001B0605D40B681B0602D40B681B06F3D509
:101720008C810B681B0608D40B681B0605D40B685C
:101730001B0602D40B681B06F3D56C238B810B6848
:101740001B0608D40B681B0605D40B681B0602D4C5
:101750000B681B06F3D58C810B681B0608D40B683D
:101760001B0605D40B681B0602D40B681B06F3D5B9
:1017700063238B810B681B0608D40B681B0605D4FA
:101780000B681B0602D40B681B06F3D574238B81F0
:101790000B681B0608D40B681B0605D40B681B06D8
:1017A00002D40B681B06F3D58C810B681B0608D48A
:1017B0000B681B0605D40B681B0602D40B681B06BE
:1017C000F3D58A810A68120608D40A68120605D47D
:1017D0000A68120602D40A681206F3D53A228A81F0
:1017E0000A68120608D40A68120605D40A681206A6
:1017F00002D40A681206F3D5069A8A810B6806227B
:101800001B0600D55FE60B681B0600D55BE60B6880
:101810001B0600D557E60B681B06EFD553E6C046FE
:1018200070000020000800480868000608D4086816
:10183000000605D40868000602D408680006F3D53F
:10184000492088810868000608D40868000605D485
:101850000868000602D408680006F3D56E20888167
:101860000868000608D40868000605D40868000661
:1018700002D408680006F3D576208881086800063F
:1018800008D40868000605D40868000602D4086871
:101890000006F3D5612088810868000608D408682E
:1018A000000605D40868000602D408680006F3D5CF
:1018B0006C2088810868000608D40868000605D4F2
:1018C0000868000602D408680006F3D569208881FC
:1018D0000A68120608D40A68120605D40A681206B5
:1018E00002D40A681206F3D564228A810A681206B5
:1018F00008D40A68120605D40A68120602D40A68D7
:101900001206F3D5089A8A810A68120608D40A6872
:10191000120605D40A68120602D40A681206F3D524
:1019200063228A810B681B0608D40B681B0605D44A
:101930000B681B0602D40B681B06F3D5039B8B8137
:101940000B681B0608D40B681B0605D40B681B0626
:1019500002D40B681B06F3D58E810B681B0608D4D6
:101960000B681B0605D40B681B0602D40B681B060C
:10197000F3D58881059E0868000608D4086800062B
:1019800005D40868000602D408680006F3D58A81E9
:10199000A84B0868000608D40868000605D4086843
:1019A000000602D408680006F3D58C81086800069A
:1019B00008D40868000605D40868000602D4086840
:1019C0000006F3D5069888810868000601D5FFF760
:1019D000EDF80868000601D5FFF7E8F8086800068A
:1019E00001D5FFF7E3F808680006EDD5FFF7DEF84C
:1019F000029B9340904C62699A436261059E0A681B
:101A0000120608D40A68120605D40A68120602D41F
:101A10000A681206F3D58F81864B0A68120608D42D
:101A20000A68120605D40A68120602D40A68120669
:101A3000F3D588810868000608D40868000605D434
:101A40000868000602D408680006F3D50498888167
:101A50000868000608D40868000605D4086800066F
:101A600002D408680006F3D5089888810868000643
:101A700008D40868000605D40868000602D408687F
:101A80000006F3D54F2088810868000608D408684E
:101A9000000605D40868000602D408680006F3D5DD
:101AA000462088810A68120608D40A68120605D4FE
:101AB0000A68120602D40A681206F3D588810868FB
:101AC000000608D40868000605D40868000602D499
:101AD00008680006F3D53A2088810868000608D413
:101AE0000868000605D40868000602D408680006E5
:101AF000F3D5069888810868000601D5FFF756F8E7
:101B00000868000601D5FFF751F80868000601D5FE
:101B1000FFF74CF808680006EDD5FFF747F8029B81
:101B20009340454C62691A4362610A68120608D400
:101B30000A68120605D40A68120602D40A68120658
:101B4000F3D58F813B4B059E0A68120608D40A68BC
:101B5000120605D40A68120602D40A681206F3D5E2
:101B600088810868000608D40868000605D408685B
:101B7000000602D408680006F3D504988881086836
:101B8000000608D40868000605D40868000602D4D8
:101B900008680006F3D5089888810868000608D40C
:101BA0000868000605D40868000602D40868000624
:101BB000F3D54F2088810868000608D4086800061D
:101BC00005D40868000602D408680006F3D54E2044
:101BD00088810868000608D40868000605D40868EB
:101BE000000602D408680006F3D53A208881086808
:101BF000000608D40868000605D40868000602D468
:101C000008680006F3D5069888810868000601D5A3
:101C1000FEF7CCFF0868000601D5FEF7C7FF08688D
:101C2000000601D5FEF7C2FF08680006EDD5FEF7F5
:101C3000BDFFC046700000200008004843088B42EA
:101C40001AD3002203098B4279D3030A8B425ED355
:101C5000030B8B4242D3030C8B4227D30902FF2292
:101C600012BA030C8B4202D31212090203D0030BE7
:101C70008B4233D31AE0D3E0411A8041401C7047B5
:101C800003460B4371D443088B42F5D3002203096A
:101C90008B4254D3030A8B4239D3030B8B421DD39F
:101CA000030C8B4202D394466EE0090AC30B8B42AD
:101CB00001D3CB03C01A5241830B8B4201D38B0358
:101CC000C01A5241430B8B4201D34B03C01A5241FD
:101CD000030B8B4201D30B03C01A5241C30A8B4240
:101CE00001D3CB02C01A5241830A8B4201D38B022B
:101CF000C01A5241430A8B4201D34B02C01A5241CF
:101D0000030A8B4201D30B02C01A5241CDD2C30940
:101D10008B4201D3CB01C01A524183098B4201D3BC
:101D20008B01C01A524143098B4201D34B01C01AA7
:101D3000524103098B4201D30B01C01A5241C3081F
:101D40008B4201D3CB00C01A524183088B4201D38E
:101D50008B00C01A524143088B4201D34B00C01A7A
:101D60005241411A524110007047CA0F00D04942F7
:101D7000031000D34042534000229C4603098B428B
:101D80002DD3030A8B4212D38901FC2212BA030A13
:101D90008B420CD3890192118B4208D38901921195
:101DA0008B4204D3890137D0921100E08909C3091D
:101DB0008B4201D3CB01C01A524183098B4201D31C
:101DC0008B01C01A524143098B4201D34B01C01A07
:101DD000524103098B4201D30B01C01A5241C3087F
:101DE0008B4201D3CB00C01A524183088B4201D3EE
:101DF0008B00C01A5241D9D243088B4201D34B0009
:101E0000C01A5241411A00D201465241104663465F
:101E10005B1000D34042704763465B1000D34042E2
:101E200001B50021004201D0C9430846C046C04662
:101E300002BD0000000000000000010203040607CC
:101E4000080902030405060708090A0B0C0D0E0F0A
:101E500010100102030405060708090A0B0C0D0EF9
:101E60000F100000881E0008000000201000000075
:101E70001C010008981E00081000002070060000D9
:101E80003C01000800000000010000000400000008
:081E900000127A0000000000BE
:04000005080000C12E
:00000001FF
